{
  "_format": "hh-sol-artifact-1",
  "contractName": "DisputeEscrow",
  "sourceName": "contracts/DisputeEscrow.sol",
  "abi": [
    {
      "inputs": [
        {
          "internalType": "address",
          "name": "avfToken_",
          "type": "address"
        },
        {
          "internalType": "address",
          "name": "initialOwner",
          "type": "address"
        }
      ],
      "stateMutability": "nonpayable",
      "type": "constructor"
    },
    {
      "inputs": [],
      "name": "AlreadySettled",
      "type": "error"
    },
    {
      "inputs": [],
      "name": "DepositExists",
      "type": "error"
    },
    {
      "inputs": [],
      "name": "InvalidRecipient",
      "type": "error"
    },
    {
      "inputs": [],
      "name": "NoDeposit",
      "type": "error"
    },
    {
      "inputs": [],
      "name": "OnlyAvfToken",
      "type": "error"
    },
    {
      "inputs": [],
      "name": "OnlyRelayer",
      "type": "error"
    },
    {
      "inputs": [
        {
          "internalType": "address",
          "name": "owner",
          "type": "address"
        }
      ],
      "name": "OwnableInvalidOwner",
      "type": "error"
    },
    {
      "inputs": [
        {
          "internalType": "address",
          "name": "account",
          "type": "address"
        }
      ],
      "name": "OwnableUnauthorizedAccount",
      "type": "error"
    },
    {
      "anonymous": false,
      "inputs": [
        {
          "indexed": true,
          "internalType": "bytes32",
          "name": "disputeKey",
          "type": "bytes32"
        },
        {
          "indexed": true,
          "internalType": "address",
          "name": "plaintiff",
          "type": "address"
        },
        {
          "indexed": true,
          "internalType": "address",
          "name": "defendant",
          "type": "address"
        },
        {
          "indexed": false,
          "internalType": "uint256",
          "name": "amount",
          "type": "uint256"
        }
      ],
      "name": "Deposited",
      "type": "event"
    },
    {
      "anonymous": false,
      "inputs": [
        {
          "indexed": true,
          "internalType": "address",
          "name": "previousOwner",
          "type": "address"
        },
        {
          "indexed": true,
          "internalType": "address",
          "name": "newOwner",
          "type": "address"
        }
      ],
      "name": "OwnershipTransferred",
      "type": "event"
    },
    {
      "anonymous": false,
      "inputs": [
        {
          "indexed": true,
          "internalType": "address",
          "name": "account",
          "type": "address"
        },
        {
          "indexed": false,
          "internalType": "bool",
          "name": "enabled",
          "type": "bool"
        }
      ],
      "name": "RelayerUpdated",
      "type": "event"
    },
    {
      "anonymous": false,
      "inputs": [
        {
          "indexed": true,
          "internalType": "bytes32",
          "name": "disputeKey",
          "type": "bytes32"
        },
        {
          "indexed": false,
          "internalType": "enum DisputeEscrow.Outcome",
          "name": "outcome",
          "type": "uint8"
        },
        {
          "indexed": false,
          "internalType": "address",
          "name": "recipient",
          "type": "address"
        },
        {
          "indexed": false,
          "internalType": "uint256",
          "name": "amount",
          "type": "uint256"
        }
      ],
      "name": "Settled",
      "type": "event"
    },
    {
      "inputs": [],
      "name": "avfToken",
      "outputs": [
        {
          "internalType": "address",
          "name": "",
          "type": "address"
        }
      ],
      "stateMutability": "view",
      "type": "function"
    },
    {
      "inputs": [
        {
          "internalType": "bytes32",
          "name": "",
          "type": "bytes32"
        }
      ],
      "name": "deposits",
      "outputs": [
        {
          "internalType": "address",
          "name": "plaintiff",
          "type": "address"
        },
        {
          "internalType": "address",
          "name": "defendant",
          "type": "address"
        },
        {
          "internalType": "uint256",
          "name": "amount",
          "type": "uint256"
        },
        {
          "internalType": "bool",
          "name": "settled",
          "type": "bool"
        }
      ],
      "stateMutability": "view",
      "type": "function"
    },
    {
      "inputs": [],
      "name": "owner",
      "outputs": [
        {
          "internalType": "address",
          "name": "",
          "type": "address"
        }
      ],
      "stateMutability": "view",
      "type": "function"
    },
    {
      "inputs": [
        {
          "internalType": "address",
          "name": "",
          "type": "address"
        }
      ],
      "name": "relayers",
      "outputs": [
        {
          "internalType": "bool",
          "name": "",
          "type": "bool"
        }
      ],
      "stateMutability": "view",
      "type": "function"
    },
    {
      "inputs": [],
      "name": "renounceOwnership",
      "outputs": [],
      "stateMutability": "nonpayable",
      "type": "function"
    },
    {
      "inputs": [
        {
          "internalType": "address",
          "name": "account",
          "type": "address"
        },
        {
          "internalType": "bool",
          "name": "enabled",
          "type": "bool"
        }
      ],
      "name": "setRelayer",
      "outputs": [],
      "stateMutability": "nonpayable",
      "type": "function"
    },
    {
      "inputs": [
        {
          "internalType": "bytes32",
          "name": "disputeKey",
          "type": "bytes32"
        },
        {
          "internalType": "enum DisputeEscrow.Outcome",
          "name": "outcome",
          "type": "uint8"
        },
        {
          "internalType": "address",
          "name": "recipient",
          "type": "address"
        }
      ],
      "name": "settle",
      "outputs": [],
      "stateMutability": "nonpayable",
      "type": "function"
    },
    {
      "inputs": [
        {
          "internalType": "address",
          "name": "_from",
          "type": "address"
        },
        {
          "internalType": "uint256",
          "name": "_value",
          "type": "uint256"
        },
        {
          "internalType": "bytes",
          "name": "_data",
          "type": "bytes"
        }
      ],
      "name": "tokenReceived",
      "outputs": [
        {
          "internalType": "bytes4",
          "name": "",
          "type": "bytes4"
        }
      ],
      "stateMutability": "nonpayable",
      "type": "function"
    },
    {
      "inputs": [
        {
          "internalType": "address",
          "name": "newOwner",
          "type": "address"
        }
      ],
      "name": "transferOwnership",
      "outputs": [],
      "stateMutability": "nonpayable",
      "type": "function"
    }
  ],
  "bytecode": "0x60a060405234801561001057600080fd5b50604051610ba0380380610ba083398101604081905261002f91610104565b806001600160a01b03811661005e57604051631e4fbdf760e01b81526000600482015260240160405180910390fd5b61006781610098565b506001600160a01b03918216608052166000908152600160208190526040909120805460ff19169091179055610137565b600080546001600160a01b038381166001600160a01b0319831681178455604051919092169283917f8be0079c531659141344cd1fd0a4f28419497f9722a3daafe3b4186f6b6457e09190a35050565b80516001600160a01b03811681146100ff57600080fd5b919050565b6000806040838503121561011757600080fd5b610120836100e8565b915061012e602084016100e8565b90509250929050565b608051610a40610160600039600081816101160152818161022401526106750152610a406000f3fe608060405234801561001057600080fd5b50600436106100935760003560e01c80638943ec02116100665780638943ec021461018d5780638da5cb5b146101b9578063a8380575146101ca578063ecd8dc3a146101dd578063f2fde38b146101f057600080fd5b80633d4dff7b1461009857806345b00431146101115780635300f84114610150578063715018a614610183575b600080fd5b6100df6100a6366004610782565b600260208190526000918252604090912080546001820154928201546003909201546001600160a01b0391821693909116919060ff1684565b604080516001600160a01b03958616815294909316602085015291830152151560608201526080015b60405180910390f35b6101387f000000000000000000000000000000000000000000000000000000000000000081565b6040516001600160a01b039091168152602001610108565b61017361015e3660046107b0565b60016020526000908152604090205460ff1681565b6040519015158152602001610108565b61018b610203565b005b6101a061019b3660046107ea565b610217565b6040516001600160e01b03199091168152602001610108565b6000546001600160a01b0316610138565b61018b6101d83660046108b7565b61037d565b61018b6101eb36600461090b565b61052d565b61018b6101fe3660046107b0565b610594565b61020b6105d7565b6102156000610604565b565b6000336001600160a01b037f000000000000000000000000000000000000000000000000000000000000000016146102625760405163724a94f160e01b815260040160405180910390fd5b600080838060200190518101906102799190610944565b600082815260026020819052604090912001549193509150156102af57604051635697d4c760e11b815260040160405180910390fd5b604080516080810182526001600160a01b0388811680835284821660208085018281528587018c81526000606088018181528b82526002808652918a9020985189546001600160a01b0319908116918a16919091178a55935160018a018054909516981697909717909255519086015592516003909401805460ff191694151594909417909355925188815291929185917fcfccc5211684bc31ce945214025a7453ba30a1ffcc38fcb691ce742437f3f256910160405180910390a4506344a1f60160e11b95945050505050565b3360009081526001602052604090205460ff161580156103a857506000546001600160a01b03163314155b156103c6576040516308af1bb760e31b815260040160405180910390fd5b60008381526002602081905260408220908101549091036103fa57604051633a6a68b160e01b815260040160405180910390fd5b600381015460ff161561041f5760405162560ff960e81b815260040160405180910390fd5b600083600281111561043357610433610969565b0361044a5780546001600160a01b0316915061049f565b600183600281111561045e5761045e610969565b036104755780546001600160a01b0316915061049f565b600283600281111561048957610489610969565b0361049f5760018101546001600160a01b031691505b6001600160a01b0382166104c657604051634e46966960e11b815260040160405180910390fd5b60028101805460038301805460ff1916600117905560009091556104ea8382610654565b847f3a8f3ffc8b71467a50f06afa73b6310a31a43ea72045f861f7d7cdc3e79d6c6885858460405161051e9392919061097f565b60405180910390a25050505050565b6105356105d7565b6001600160a01b038216600081815260016020908152604091829020805460ff191685151590811790915591519182527f4b36b2e66f38ed349bec532105790177f1283bcbc094e6cd48565195d3033c43910160405180910390a25050565b61059c6105d7565b6001600160a01b0381166105cb57604051631e4fbdf760e01b8152600060048201526024015b60405180910390fd5b6105d481610604565b50565b6000546001600160a01b031633146102155760405163118cdaa760e01b81523360048201526024016105c2565b600080546001600160a01b038381166001600160a01b0319831681178455604051919092169283917f8be0079c531659141344cd1fd0a4f28419497f9722a3daafe3b4186f6b6457e09190a35050565b6040516001600160a01b0383811660248301526044820183905260009182917f0000000000000000000000000000000000000000000000000000000000000000169060640160408051601f198184030181529181526020820180516001600160e01b031663a9059cbb60e01b179052516106ce91906109be565b6000604051808303816000865af19150503d806000811461070b576040519150601f19603f3d011682016040523d82523d6000602084013e610710565b606091505b509150915081801561073a57508051158061073a57508080602001905181019061073a91906109ed565b61077c5760405162461bcd60e51b8152602060048201526013602482015272105591881d1c985b9cd9995c8819985a5b1959606a1b60448201526064016105c2565b50505050565b60006020828403121561079457600080fd5b5035919050565b6001600160a01b03811681146105d457600080fd5b6000602082840312156107c257600080fd5b81356107cd8161079b565b9392505050565b634e487b7160e01b600052604160045260246000fd5b6000806000606084860312156107ff57600080fd5b833561080a8161079b565b925060208401359150604084013567ffffffffffffffff8082111561082e57600080fd5b818601915086601f83011261084257600080fd5b813581811115610854576108546107d4565b604051601f8201601f19908116603f0116810190838211818310171561087c5761087c6107d4565b8160405282815289602084870101111561089557600080fd5b8260208601602083013760006020848301015280955050505050509250925092565b6000806000606084860312156108cc57600080fd5b833592506020840135600381106108e257600080fd5b915060408401356108f28161079b565b809150509250925092565b80151581146105d457600080fd5b6000806040838503121561091e57600080fd5b82356109298161079b565b91506020830135610939816108fd565b809150509250929050565b6000806040838503121561095757600080fd5b8251915060208301516109398161079b565b634e487b7160e01b600052602160045260246000fd5b60608101600385106109a157634e487b7160e01b600052602160045260246000fd5b9381526001600160a01b0392909216602083015260409091015290565b6000825160005b818110156109df57602081860181015185830152016109c5565b506000920191825250919050565b6000602082840312156109ff57600080fd5b81516107cd816108fd56fea2646970667358221220809719703688cb6a07713f7c5cb0f84fc481bd6952dea92a0cfdaffa6860319564736f6c63430008180033",
  "linkReferences": {},
  "deployedLinkReferences": {}
}