{"contracts/OutcomeRegistry.sol":{"OutcomeRegistry":{"abi":[{"inputs":[{"internalType":"address","name":"initialOwner","type":"address"}],"stateMutability":"nonpayable","type":"constructor"},{"inputs":[],"name":"AlreadyAnchored","type":"error"},{"inputs":[],"name":"OnlyRelayer","type":"error"},{"inputs":[{"internalType":"address","name":"owner","type":"address"}],"name":"OwnableInvalidOwner","type":"error"},{"inputs":[{"internalType":"address","name":"account","type":"address"}],"name":"OwnableUnauthorizedAccount","type":"error"},{"anonymous":false,"inputs":[{"indexed":true,"internalType":"bytes32","name":"disputeKey","type":"bytes32"},{"indexed":false,"internalType":"bytes32","name":"outcomeHash","type":"bytes32"},{"indexed":false,"internalType":"uint8","name":"outcome","type":"uint8"},{"indexed":false,"internalType":"uint256","name":"anchoredAt","type":"uint256"}],"name":"OutcomeAnchored","type":"event"},{"anonymous":false,"inputs":[{"indexed":true,"internalType":"address","name":"previousOwner","type":"address"},{"indexed":true,"internalType":"address","name":"newOwner","type":"address"}],"name":"OwnershipTransferred","type":"event"},{"anonymous":false,"inputs":[{"indexed":true,"internalType":"address","name":"account","type":"address"},{"indexed":false,"internalType":"bool","name":"enabled","type":"bool"}],"name":"RelayerUpdated","type":"event"},{"inputs":[{"internalType":"bytes32","name":"disputeKey","type":"bytes32"},{"internalType":"bytes32","name":"outcomeHash","type":"bytes32"},{"internalType":"uint8","name":"outcome","type":"uint8"}],"name":"anchor","outputs":[],"stateMutability":"nonpayable","type":"function"},{"inputs":[],"name":"owner","outputs":[{"internalType":"address","name":"","type":"address"}],"stateMutability":"view","type":"function"},{"inputs":[{"internalType":"bytes32","name":"","type":"bytes32"}],"name":"records","outputs":[{"internalType":"bytes32","name":"outcomeHash","type":"bytes32"},{"internalType":"uint8","name":"outcome","type":"uint8"},{"internalType":"uint256","name":"anchoredAt","type":"uint256"},{"internalType":"bool","name":"exists","type":"bool"}],"stateMutability":"view","type":"function"},{"inputs":[{"internalType":"address","name":"","type":"address"}],"name":"relayers","outputs":[{"internalType":"bool","name":"","type":"bool"}],"stateMutability":"view","type":"function"},{"inputs":[],"name":"renounceOwnership","outputs":[],"stateMutability":"nonpayable","type":"function"},{"inputs":[{"internalType":"address","name":"account","type":"address"},{"internalType":"bool","name":"enabled","type":"bool"}],"name":"setRelayer","outputs":[],"stateMutability":"nonpayable","type":"function"},{"inputs":[{"internalType":"address","name":"newOwner","type":"address"}],"name":"transferOwnership","outputs":[],"stateMutability":"nonpayable","type":"function"}],"evm":{"bytecode":{"linkReferences":{},"object":"608060405234801561001057600080fd5b5060405161060f38038061060f83398101604081905261002f916100e2565b806001600160a01b03811661005e57604051631e4fbdf760e01b81526000600482015260240160405180910390fd5b61006781610092565b506001600160a01b03166000908152600160208190526040909120805460ff19169091179055610112565b600080546001600160a01b038381166001600160a01b0319831681178455604051919092169283917f8be0079c531659141344cd1fd0a4f28419497f9722a3daafe3b4186f6b6457e09190a35050565b6000602082840312156100f457600080fd5b81516001600160a01b038116811461010b57600080fd5b9392505050565b6104ee806101216000396000f3fe608060405234801561001057600080fd5b506004361061007d5760003560e01c80638da5cb5b1161005b5780638da5cb5b14610125578063ecd8dc3a14610140578063f2fde38b14610153578063fa42192c1461016657600080fd5b806301e64725146100825780635300f841146100e8578063715018a61461011b575b600080fd5b6100bf6100903660046103e6565b60026020819052600091825260409091208054600182015492820154600390920154909260ff90811692911684565b6040805194855260ff909316602085015291830152151560608201526080015b60405180910390f35b61010b6100f636600461041b565b60016020526000908152604090205460ff1681565b60405190151581526020016100df565b610123610179565b005b6000546040516001600160a01b0390911681526020016100df565b61012361014e36600461043d565b61018d565b61012361016136600461041b565b6101f4565b610123610174366004610479565b610237565b610181610369565b61018b6000610396565b565b610195610369565b6001600160a01b038216600081815260016020908152604091829020805460ff191685151590811790915591519182527f4b36b2e66f38ed349bec532105790177f1283bcbc094e6cd48565195d3033c43910160405180910390a25050565b6101fc610369565b6001600160a01b03811661022b57604051631e4fbdf760e01b8152600060048201526024015b60405180910390fd5b61023481610396565b50565b3360009081526001602052604090205460ff1615801561026257506000546001600160a01b03163314155b15610280576040516308af1bb760e31b815260040160405180910390fd5b60008381526002602052604090206003015460ff16156102b35760405163a0094ce360e01b815260040160405180910390fd5b6040805160808101825283815260ff8381166020808401828152428587018181526001606080890182815260008e81526002808952908c90209a518b559551928a0180549390991660ff1993841617909855915193880193909355945160039096018054961515969092169590951790558451878152908101919091529283019190915284917fb0d4294d471ef3760abeca597e4c7fe62eb206e391a82fba981f7b1920c04ea7910160405180910390a2505050565b6000546001600160a01b0316331461018b5760405163118cdaa760e01b8152336004820152602401610222565b600080546001600160a01b038381166001600160a01b0319831681178455604051919092169283917f8be0079c531659141344cd1fd0a4f28419497f9722a3daafe3b4186f6b6457e09190a35050565b6000602082840312156103f857600080fd5b5035919050565b80356001600160a01b038116811461041657600080fd5b919050565b60006020828403121561042d57600080fd5b610436826103ff565b9392505050565b6000806040838503121561045057600080fd5b610459836103ff565b91506020830135801515811461046e57600080fd5b809150509250929050565b60008060006060848603121561048e57600080fd5b8335925060208401359150604084013560ff811681146104ad57600080fd5b80915050925092509256fea2646970667358221220f6723a3f9103e9adfff68db9b3ac7835e6702301be9cfa2fb5fec3c873dac44664736f6c63430008180033","opcodes":"PUSH1 0x80 PUSH1 0x40 MSTORE CALLVALUE DUP1 ISZERO PUSH2 0x10 JUMPI PUSH1 0x0 DUP1 REVERT JUMPDEST POP PUSH1 0x40 MLOAD PUSH2 0x60F CODESIZE SUB DUP1 PUSH2 0x60F DUP4 CODECOPY DUP2 ADD PUSH1 0x40 DUP2 SWAP1 MSTORE PUSH2 0x2F SWAP2 PUSH2 0xE2 JUMP JUMPDEST DUP1 PUSH1 0x1 PUSH1 0x1 PUSH1 0xA0 SHL SUB DUP2 AND PUSH2 0x5E JUMPI PUSH1 0x40 MLOAD PUSH4 0x1E4FBDF7 PUSH1 0xE0 SHL DUP2 MSTORE PUSH1 0x0 PUSH1 0x4 DUP3 ADD MSTORE PUSH1 0x24 ADD PUSH1 0x40 MLOAD DUP1 SWAP2 SUB SWAP1 REVERT JUMPDEST PUSH2 0x67 DUP2 PUSH2 0x92 JUMP JUMPDEST POP PUSH1 0x1 PUSH1 0x1 PUSH1 0xA0 SHL SUB AND PUSH1 0x0 SWAP1 DUP2 MSTORE PUSH1 0x1 PUSH1 0x20 DUP2 SWAP1 MSTORE PUSH1 0x40 SWAP1 SWAP2 KECCAK256 DUP1 SLOAD PUSH1 0xFF NOT AND SWAP1 SWAP2 OR SWAP1 SSTORE PUSH2 0x112 JUMP JUMPDEST PUSH1 0x0 DUP1 SLOAD PUSH1 0x1 PUSH1 0x1 PUSH1 0xA0 SHL SUB DUP4 DUP2 AND PUSH1 0x1 PUSH1 0x1 PUSH1 0xA0 SHL SUB NOT DUP4 AND DUP2 OR DUP5 SSTORE PUSH1 0x40 MLOAD SWAP2 SWAP1 SWAP3 AND SWAP3 DUP4 SWAP2 PUSH32 0x8BE0079C531659141344CD1FD0A4F28419497F9722A3DAAFE3B4186F6B6457E0 SWAP2 SWAP1 LOG3 POP POP JUMP JUMPDEST PUSH1 0x0 PUSH1 0x20 DUP3 DUP5 SUB SLT ISZERO PUSH2 0xF4 JUMPI PUSH1 0x0 DUP1 REVERT JUMPDEST DUP2 MLOAD PUSH1 0x1 PUSH1 0x1 PUSH1 0xA0 SHL SUB DUP2 AND DUP2 EQ PUSH2 0x10B JUMPI PUSH1 0x0 DUP1 REVERT JUMPDEST SWAP4 SWAP3 POP POP POP JUMP JUMPDEST PUSH2 0x4EE DUP1 PUSH2 0x121 PUSH1 0x0 CODECOPY PUSH1 0x0 RETURN INVALID PUSH1 0x80 PUSH1 0x40 MSTORE CALLVALUE DUP1 ISZERO PUSH2 0x10 JUMPI PUSH1 0x0 DUP1 REVERT JUMPDEST POP PUSH1 0x4 CALLDATASIZE LT PUSH2 0x7D JUMPI PUSH1 0x0 CALLDATALOAD PUSH1 0xE0 SHR DUP1 PUSH4 0x8DA5CB5B GT PUSH2 0x5B JUMPI DUP1 PUSH4 0x8DA5CB5B EQ PUSH2 0x125 JUMPI DUP1 PUSH4 0xECD8DC3A EQ PUSH2 0x140 JUMPI DUP1 PUSH4 0xF2FDE38B EQ PUSH2 0x153 JUMPI DUP1 PUSH4 0xFA42192C EQ PUSH2 0x166 JUMPI PUSH1 0x0 DUP1 REVERT JUMPDEST DUP1 PUSH4 0x1E64725 EQ PUSH2 0x82 JUMPI DUP1 PUSH4 0x5300F841 EQ PUSH2 0xE8 JUMPI DUP1 PUSH4 0x715018A6 EQ PUSH2 0x11B JUMPI JUMPDEST PUSH1 0x0 DUP1 REVERT JUMPDEST PUSH2 0xBF PUSH2 0x90 CALLDATASIZE PUSH1 0x4 PUSH2 0x3E6 JUMP JUMPDEST PUSH1 0x2 PUSH1 0x20 DUP2 SWAP1 MSTORE PUSH1 0x0 SWAP2 DUP3 MSTORE PUSH1 0x40 SWAP1 SWAP2 KECCAK256 DUP1 SLOAD PUSH1 0x1 DUP3 ADD SLOAD SWAP3 DUP3 ADD SLOAD PUSH1 0x3 SWAP1 SWAP3 ADD SLOAD SWAP1 SWAP3 PUSH1 0xFF SWAP1 DUP2 AND SWAP3 SWAP2 AND DUP5 JUMP JUMPDEST PUSH1 0x40 DUP1 MLOAD SWAP5 DUP6 MSTORE PUSH1 0xFF SWAP1 SWAP4 AND PUSH1 0x20 DUP6 ADD MSTORE SWAP2 DUP4 ADD MSTORE ISZERO ISZERO PUSH1 0x60 DUP3 ADD MSTORE PUSH1 0x80 ADD JUMPDEST PUSH1 0x40 MLOAD DUP1 SWAP2 SUB SWAP1 RETURN JUMPDEST PUSH2 0x10B PUSH2 0xF6 CALLDATASIZE PUSH1 0x4 PUSH2 0x41B JUMP JUMPDEST PUSH1 0x1 PUSH1 0x20 MSTORE PUSH1 0x0 SWAP1 DUP2 MSTORE PUSH1 0x40 SWAP1 KECCAK256 SLOAD PUSH1 0xFF AND DUP2 JUMP JUMPDEST PUSH1 0x40 MLOAD SWAP1 ISZERO ISZERO DUP2 MSTORE PUSH1 0x20 ADD PUSH2 0xDF JUMP JUMPDEST PUSH2 0x123 PUSH2 0x179 JUMP JUMPDEST STOP JUMPDEST PUSH1 0x0 SLOAD PUSH1 0x40 MLOAD PUSH1 0x1 PUSH1 0x1 PUSH1 0xA0 SHL SUB SWAP1 SWAP2 AND DUP2 MSTORE PUSH1 0x20 ADD PUSH2 0xDF JUMP JUMPDEST PUSH2 0x123 PUSH2 0x14E CALLDATASIZE PUSH1 0x4 PUSH2 0x43D JUMP JUMPDEST PUSH2 0x18D JUMP JUMPDEST PUSH2 0x123 PUSH2 0x161 CALLDATASIZE PUSH1 0x4 PUSH2 0x41B JUMP JUMPDEST PUSH2 0x1F4 JUMP JUMPDEST PUSH2 0x123 PUSH2 0x174 CALLDATASIZE PUSH1 0x4 PUSH2 0x479 JUMP JUMPDEST PUSH2 0x237 JUMP JUMPDEST PUSH2 0x181 PUSH2 0x369 JUMP JUMPDEST PUSH2 0x18B PUSH1 0x0 PUSH2 0x396 JUMP JUMPDEST JUMP JUMPDEST PUSH2 0x195 PUSH2 0x369 JUMP JUMPDEST PUSH1 0x1 PUSH1 0x1 PUSH1 0xA0 SHL SUB DUP3 AND PUSH1 0x0 DUP2 DUP2 MSTORE PUSH1 0x1 PUSH1 0x20 SWAP1 DUP2 MSTORE PUSH1 0x40 SWAP2 DUP3 SWAP1 KECCAK256 DUP1 SLOAD PUSH1 0xFF NOT AND DUP6 ISZERO ISZERO SWAP1 DUP2 OR SWAP1 SWAP2 SSTORE SWAP2 MLOAD SWAP2 DUP3 MSTORE PUSH32 0x4B36B2E66F38ED349BEC532105790177F1283BCBC094E6CD48565195D3033C43 SWAP2 ADD PUSH1 0x40 MLOAD DUP1 SWAP2 SUB SWAP1 LOG2 POP POP JUMP JUMPDEST PUSH2 0x1FC PUSH2 0x369 JUMP JUMPDEST PUSH1 0x1 PUSH1 0x1 PUSH1 0xA0 SHL SUB DUP2 AND PUSH2 0x22B JUMPI PUSH1 0x40 MLOAD PUSH4 0x1E4FBDF7 PUSH1 0xE0 SHL DUP2 MSTORE PUSH1 0x0 PUSH1 0x4 DUP3 ADD MSTORE PUSH1 0x24 ADD JUMPDEST PUSH1 0x40 MLOAD DUP1 SWAP2 SUB SWAP1 REVERT JUMPDEST PUSH2 0x234 DUP2 PUSH2 0x396 JUMP JUMPDEST POP JUMP JUMPDEST CALLER PUSH1 0x0 SWAP1 DUP2 MSTORE PUSH1 0x1 PUSH1 0x20 MSTORE PUSH1 0x40 SWAP1 KECCAK256 SLOAD PUSH1 0xFF AND ISZERO DUP1 ISZERO PUSH2 0x262 JUMPI POP PUSH1 0x0 SLOAD PUSH1 0x1 PUSH1 0x1 PUSH1 0xA0 SHL SUB AND CALLER EQ ISZERO JUMPDEST ISZERO PUSH2 0x280 JUMPI PUSH1 0x40 MLOAD PUSH4 0x8AF1BB7 PUSH1 0xE3 SHL DUP2 MSTORE PUSH1 0x4 ADD PUSH1 0x40 MLOAD DUP1 SWAP2 SUB SWAP1 REVERT JUMPDEST PUSH1 0x0 DUP4 DUP2 MSTORE PUSH1 0x2 PUSH1 0x20 MSTORE PUSH1 0x40 SWAP1 KECCAK256 PUSH1 0x3 ADD SLOAD PUSH1 0xFF AND ISZERO PUSH2 0x2B3 JUMPI PUSH1 0x40 MLOAD PUSH4 0xA0094CE3 PUSH1 0xE0 SHL DUP2 MSTORE PUSH1 0x4 ADD PUSH1 0x40 MLOAD DUP1 SWAP2 SUB SWAP1 REVERT JUMPDEST PUSH1 0x40 DUP1 MLOAD PUSH1 0x80 DUP2 ADD DUP3 MSTORE DUP4 DUP2 MSTORE PUSH1 0xFF DUP4 DUP2 AND PUSH1 0x20 DUP1 DUP5 ADD DUP3 DUP2 MSTORE TIMESTAMP DUP6 DUP8 ADD DUP2 DUP2 MSTORE PUSH1 0x1 PUSH1 0x60 DUP1 DUP10 ADD DUP3 DUP2 MSTORE PUSH1 0x0 DUP15 DUP2 MSTORE PUSH1 0x2 DUP1 DUP10 MSTORE SWAP1 DUP13 SWAP1 KECCAK256 SWAP11 MLOAD DUP12 SSTORE SWAP6 MLOAD SWAP3 DUP11 ADD DUP1 SLOAD SWAP4 SWAP1 SWAP10 AND PUSH1 0xFF NOT SWAP4 DUP5 AND OR SWAP1 SWAP9 SSTORE SWAP2 MLOAD SWAP4 DUP9 ADD SWAP4 SWAP1 SWAP4 SSTORE SWAP5 MLOAD PUSH1 0x3 SWAP1 SWAP7 ADD DUP1 SLOAD SWAP7 ISZERO ISZERO SWAP7 SWAP1 SWAP3 AND SWAP6 SWAP1 SWAP6 OR SWAP1 SSTORE DUP5 MLOAD DUP8 DUP2 MSTORE SWAP1 DUP2 ADD SWAP2 SWAP1 SWAP2 MSTORE SWAP3 DUP4 ADD SWAP2 SWAP1 SWAP2 MSTORE DUP5 SWAP2 PUSH32 0xB0D4294D471EF3760ABECA597E4C7FE62EB206E391A82FBA981F7B1920C04EA7 SWAP2 ADD PUSH1 0x40 MLOAD DUP1 SWAP2 SUB SWAP1 LOG2 POP POP POP JUMP JUMPDEST PUSH1 0x0 SLOAD PUSH1 0x1 PUSH1 0x1 PUSH1 0xA0 SHL SUB AND CALLER EQ PUSH2 0x18B JUMPI PUSH1 0x40 MLOAD PUSH4 0x118CDAA7 PUSH1 0xE0 SHL DUP2 MSTORE CALLER PUSH1 0x4 DUP3 ADD MSTORE PUSH1 0x24 ADD PUSH2 0x222 JUMP JUMPDEST PUSH1 0x0 DUP1 SLOAD PUSH1 0x1 PUSH1 0x1 PUSH1 0xA0 SHL SUB DUP4 DUP2 AND PUSH1 0x1 PUSH1 0x1 PUSH1 0xA0 SHL SUB NOT DUP4 AND DUP2 OR DUP5 SSTORE PUSH1 0x40 MLOAD SWAP2 SWAP1 SWAP3 AND SWAP3 DUP4 SWAP2 PUSH32 0x8BE0079C531659141344CD1FD0A4F28419497F9722A3DAAFE3B4186F6B6457E0 SWAP2 SWAP1 LOG3 POP POP JUMP JUMPDEST PUSH1 0x0 PUSH1 0x20 DUP3 DUP5 SUB SLT ISZERO PUSH2 0x3F8 JUMPI PUSH1 0x0 DUP1 REVERT JUMPDEST POP CALLDATALOAD SWAP2 SWAP1 POP JUMP JUMPDEST DUP1 CALLDATALOAD PUSH1 0x1 PUSH1 0x1 PUSH1 0xA0 SHL SUB DUP2 AND DUP2 EQ PUSH2 0x416 JUMPI PUSH1 0x0 DUP1 REVERT JUMPDEST SWAP2 SWAP1 POP JUMP JUMPDEST PUSH1 0x0 PUSH1 0x20 DUP3 DUP5 SUB SLT ISZERO PUSH2 0x42D JUMPI PUSH1 0x0 DUP1 REVERT JUMPDEST PUSH2 0x436 DUP3 PUSH2 0x3FF JUMP JUMPDEST SWAP4 SWAP3 POP POP POP JUMP JUMPDEST PUSH1 0x0 DUP1 PUSH1 0x40 DUP4 DUP6 SUB SLT ISZERO PUSH2 0x450 JUMPI PUSH1 0x0 DUP1 REVERT JUMPDEST PUSH2 0x459 DUP4 PUSH2 0x3FF JUMP JUMPDEST SWAP2 POP PUSH1 0x20 DUP4 ADD CALLDATALOAD DUP1 ISZERO ISZERO DUP2 EQ PUSH2 0x46E JUMPI PUSH1 0x0 DUP1 REVERT JUMPDEST DUP1 SWAP2 POP POP SWAP3 POP SWAP3 SWAP1 POP JUMP JUMPDEST PUSH1 0x0 DUP1 PUSH1 0x0 PUSH1 0x60 DUP5 DUP7 SUB SLT ISZERO PUSH2 0x48E JUMPI PUSH1 0x0 DUP1 REVERT JUMPDEST DUP4 CALLDATALOAD SWAP3 POP PUSH1 0x20 DUP5 ADD CALLDATALOAD SWAP2 POP PUSH1 0x40 DUP5 ADD CALLDATALOAD PUSH1 0xFF DUP2 AND DUP2 EQ PUSH2 0x4AD JUMPI PUSH1 0x0 DUP1 REVERT JUMPDEST DUP1 SWAP2 POP POP SWAP3 POP SWAP3 POP SWAP3 JUMP INVALID LOG2 PUSH5 0x6970667358 0x22 SLT KECCAK256 0xF6 PUSH19 0x3A3F9103E9ADFFF68DB9B3AC7835E6702301BE SWAP13 STATICCALL 0x2F 0xB5 INVALID 0xC3 0xC8 PUSH20 0xDAC44664736F6C63430008180033000000000000 "},"methodIdentifiers":{"anchor(bytes32,bytes32,uint8)":"fa42192c","owner()":"8da5cb5b","records(bytes32)":"01e64725","relayers(address)":"5300f841","renounceOwnership()":"715018a6","setRelayer(address,bool)":"ecd8dc3a","transferOwnership(address)":"f2fde38b"}}}}}