{
  "_format": "hh-sol-artifact-1",
  "contractName": "OutcomeRegistry",
  "sourceName": "contracts/OutcomeRegistry.sol",
  "abi": [
    {
      "inputs": [
        {
          "internalType": "address",
          "name": "initialOwner",
          "type": "address"
        }
      ],
      "stateMutability": "nonpayable",
      "type": "constructor"
    },
    {
      "inputs": [],
      "name": "AlreadyAnchored",
      "type": "error"
    },
    {
      "inputs": [],
      "name": "OnlyRelayer",
      "type": "error"
    },
    {
      "inputs": [
        {
          "internalType": "address",
          "name": "owner",
          "type": "address"
        }
      ],
      "name": "OwnableInvalidOwner",
      "type": "error"
    },
    {
      "inputs": [
        {
          "internalType": "address",
          "name": "account",
          "type": "address"
        }
      ],
      "name": "OwnableUnauthorizedAccount",
      "type": "error"
    },
    {
      "anonymous": false,
      "inputs": [
        {
          "indexed": true,
          "internalType": "bytes32",
          "name": "disputeKey",
          "type": "bytes32"
        },
        {
          "indexed": false,
          "internalType": "bytes32",
          "name": "outcomeHash",
          "type": "bytes32"
        },
        {
          "indexed": false,
          "internalType": "uint8",
          "name": "outcome",
          "type": "uint8"
        },
        {
          "indexed": false,
          "internalType": "uint256",
          "name": "anchoredAt",
          "type": "uint256"
        }
      ],
      "name": "OutcomeAnchored",
      "type": "event"
    },
    {
      "anonymous": false,
      "inputs": [
        {
          "indexed": true,
          "internalType": "address",
          "name": "previousOwner",
          "type": "address"
        },
        {
          "indexed": true,
          "internalType": "address",
          "name": "newOwner",
          "type": "address"
        }
      ],
      "name": "OwnershipTransferred",
      "type": "event"
    },
    {
      "anonymous": false,
      "inputs": [
        {
          "indexed": true,
          "internalType": "address",
          "name": "account",
          "type": "address"
        },
        {
          "indexed": false,
          "internalType": "bool",
          "name": "enabled",
          "type": "bool"
        }
      ],
      "name": "RelayerUpdated",
      "type": "event"
    },
    {
      "inputs": [
        {
          "internalType": "bytes32",
          "name": "disputeKey",
          "type": "bytes32"
        },
        {
          "internalType": "bytes32",
          "name": "outcomeHash",
          "type": "bytes32"
        },
        {
          "internalType": "uint8",
          "name": "outcome",
          "type": "uint8"
        }
      ],
      "name": "anchor",
      "outputs": [],
      "stateMutability": "nonpayable",
      "type": "function"
    },
    {
      "inputs": [],
      "name": "owner",
      "outputs": [
        {
          "internalType": "address",
          "name": "",
          "type": "address"
        }
      ],
      "stateMutability": "view",
      "type": "function"
    },
    {
      "inputs": [
        {
          "internalType": "bytes32",
          "name": "",
          "type": "bytes32"
        }
      ],
      "name": "records",
      "outputs": [
        {
          "internalType": "bytes32",
          "name": "outcomeHash",
          "type": "bytes32"
        },
        {
          "internalType": "uint8",
          "name": "outcome",
          "type": "uint8"
        },
        {
          "internalType": "uint256",
          "name": "anchoredAt",
          "type": "uint256"
        },
        {
          "internalType": "bool",
          "name": "exists",
          "type": "bool"
        }
      ],
      "stateMutability": "view",
      "type": "function"
    },
    {
      "inputs": [
        {
          "internalType": "address",
          "name": "",
          "type": "address"
        }
      ],
      "name": "relayers",
      "outputs": [
        {
          "internalType": "bool",
          "name": "",
          "type": "bool"
        }
      ],
      "stateMutability": "view",
      "type": "function"
    },
    {
      "inputs": [],
      "name": "renounceOwnership",
      "outputs": [],
      "stateMutability": "nonpayable",
      "type": "function"
    },
    {
      "inputs": [
        {
          "internalType": "address",
          "name": "account",
          "type": "address"
        },
        {
          "internalType": "bool",
          "name": "enabled",
          "type": "bool"
        }
      ],
      "name": "setRelayer",
      "outputs": [],
      "stateMutability": "nonpayable",
      "type": "function"
    },
    {
      "inputs": [
        {
          "internalType": "address",
          "name": "newOwner",
          "type": "address"
        }
      ],
      "name": "transferOwnership",
      "outputs": [],
      "stateMutability": "nonpayable",
      "type": "function"
    }
  ],
  "bytecode": "0x608060405234801561001057600080fd5b5060405161060f38038061060f83398101604081905261002f916100e2565b806001600160a01b03811661005e57604051631e4fbdf760e01b81526000600482015260240160405180910390fd5b61006781610092565b506001600160a01b03166000908152600160208190526040909120805460ff19169091179055610112565b600080546001600160a01b038381166001600160a01b0319831681178455604051919092169283917f8be0079c531659141344cd1fd0a4f28419497f9722a3daafe3b4186f6b6457e09190a35050565b6000602082840312156100f457600080fd5b81516001600160a01b038116811461010b57600080fd5b9392505050565b6104ee806101216000396000f3fe608060405234801561001057600080fd5b506004361061007d5760003560e01c80638da5cb5b1161005b5780638da5cb5b14610125578063ecd8dc3a14610140578063f2fde38b14610153578063fa42192c1461016657600080fd5b806301e64725146100825780635300f841146100e8578063715018a61461011b575b600080fd5b6100bf6100903660046103e6565b60026020819052600091825260409091208054600182015492820154600390920154909260ff90811692911684565b6040805194855260ff909316602085015291830152151560608201526080015b60405180910390f35b61010b6100f636600461041b565b60016020526000908152604090205460ff1681565b60405190151581526020016100df565b610123610179565b005b6000546040516001600160a01b0390911681526020016100df565b61012361014e36600461043d565b61018d565b61012361016136600461041b565b6101f4565b610123610174366004610479565b610237565b610181610369565b61018b6000610396565b565b610195610369565b6001600160a01b038216600081815260016020908152604091829020805460ff191685151590811790915591519182527f4b36b2e66f38ed349bec532105790177f1283bcbc094e6cd48565195d3033c43910160405180910390a25050565b6101fc610369565b6001600160a01b03811661022b57604051631e4fbdf760e01b8152600060048201526024015b60405180910390fd5b61023481610396565b50565b3360009081526001602052604090205460ff1615801561026257506000546001600160a01b03163314155b15610280576040516308af1bb760e31b815260040160405180910390fd5b60008381526002602052604090206003015460ff16156102b35760405163a0094ce360e01b815260040160405180910390fd5b6040805160808101825283815260ff8381166020808401828152428587018181526001606080890182815260008e81526002808952908c90209a518b559551928a0180549390991660ff1993841617909855915193880193909355945160039096018054961515969092169590951790558451878152908101919091529283019190915284917fb0d4294d471ef3760abeca597e4c7fe62eb206e391a82fba981f7b1920c04ea7910160405180910390a2505050565b6000546001600160a01b0316331461018b5760405163118cdaa760e01b8152336004820152602401610222565b600080546001600160a01b038381166001600160a01b0319831681178455604051919092169283917f8be0079c531659141344cd1fd0a4f28419497f9722a3daafe3b4186f6b6457e09190a35050565b6000602082840312156103f857600080fd5b5035919050565b80356001600160a01b038116811461041657600080fd5b919050565b60006020828403121561042d57600080fd5b610436826103ff565b9392505050565b6000806040838503121561045057600080fd5b610459836103ff565b91506020830135801515811461046e57600080fd5b809150509250929050565b60008060006060848603121561048e57600080fd5b8335925060208401359150604084013560ff811681146104ad57600080fd5b80915050925092509256fea2646970667358221220f6723a3f9103e9adfff68db9b3ac7835e6702301be9cfa2fb5fec3c873dac44664736f6c63430008180033",
  "linkReferences": {},
  "deployedLinkReferences": {}
}