{
  "_format": "hh-sol-artifact-1",
  "contractName": "AVF",
  "sourceName": "contracts/AVF.sol",
  "abi": [
    {
      "inputs": [
        {
          "internalType": "address",
          "name": "initialOwner",
          "type": "address"
        }
      ],
      "stateMutability": "nonpayable",
      "type": "constructor"
    },
    {
      "inputs": [],
      "name": "InsufficientAllowance",
      "type": "error"
    },
    {
      "inputs": [],
      "name": "InsufficientBalance",
      "type": "error"
    },
    {
      "inputs": [
        {
          "internalType": "address",
          "name": "owner",
          "type": "address"
        }
      ],
      "name": "OwnableInvalidOwner",
      "type": "error"
    },
    {
      "inputs": [
        {
          "internalType": "address",
          "name": "account",
          "type": "address"
        }
      ],
      "name": "OwnableUnauthorizedAccount",
      "type": "error"
    },
    {
      "inputs": [],
      "name": "UnauthorizedMinter",
      "type": "error"
    },
    {
      "inputs": [],
      "name": "ZeroAddress",
      "type": "error"
    },
    {
      "anonymous": false,
      "inputs": [
        {
          "indexed": true,
          "internalType": "address",
          "name": "owner",
          "type": "address"
        },
        {
          "indexed": true,
          "internalType": "address",
          "name": "spender",
          "type": "address"
        },
        {
          "indexed": false,
          "internalType": "uint256",
          "name": "value",
          "type": "uint256"
        }
      ],
      "name": "Approval",
      "type": "event"
    },
    {
      "anonymous": false,
      "inputs": [
        {
          "indexed": true,
          "internalType": "address",
          "name": "account",
          "type": "address"
        },
        {
          "indexed": false,
          "internalType": "bool",
          "name": "enabled",
          "type": "bool"
        }
      ],
      "name": "MinterUpdated",
      "type": "event"
    },
    {
      "anonymous": false,
      "inputs": [
        {
          "indexed": true,
          "internalType": "address",
          "name": "previousOwner",
          "type": "address"
        },
        {
          "indexed": true,
          "internalType": "address",
          "name": "newOwner",
          "type": "address"
        }
      ],
      "name": "OwnershipTransferred",
      "type": "event"
    },
    {
      "anonymous": false,
      "inputs": [
        {
          "indexed": true,
          "internalType": "address",
          "name": "from",
          "type": "address"
        },
        {
          "indexed": true,
          "internalType": "address",
          "name": "to",
          "type": "address"
        },
        {
          "indexed": false,
          "internalType": "uint256",
          "name": "value",
          "type": "uint256"
        },
        {
          "indexed": false,
          "internalType": "bytes",
          "name": "data",
          "type": "bytes"
        }
      ],
      "name": "Transfer",
      "type": "event"
    },
    {
      "inputs": [
        {
          "internalType": "address",
          "name": "",
          "type": "address"
        },
        {
          "internalType": "address",
          "name": "",
          "type": "address"
        }
      ],
      "name": "allowance",
      "outputs": [
        {
          "internalType": "uint256",
          "name": "",
          "type": "uint256"
        }
      ],
      "stateMutability": "view",
      "type": "function"
    },
    {
      "inputs": [
        {
          "internalType": "address",
          "name": "spender",
          "type": "address"
        },
        {
          "internalType": "uint256",
          "name": "amount",
          "type": "uint256"
        }
      ],
      "name": "approve",
      "outputs": [
        {
          "internalType": "bool",
          "name": "",
          "type": "bool"
        }
      ],
      "stateMutability": "nonpayable",
      "type": "function"
    },
    {
      "inputs": [
        {
          "internalType": "address",
          "name": "",
          "type": "address"
        }
      ],
      "name": "balanceOf",
      "outputs": [
        {
          "internalType": "uint256",
          "name": "",
          "type": "uint256"
        }
      ],
      "stateMutability": "view",
      "type": "function"
    },
    {
      "inputs": [],
      "name": "decimals",
      "outputs": [
        {
          "internalType": "uint8",
          "name": "",
          "type": "uint8"
        }
      ],
      "stateMutability": "view",
      "type": "function"
    },
    {
      "inputs": [
        {
          "internalType": "address",
          "name": "to",
          "type": "address"
        },
        {
          "internalType": "uint256",
          "name": "amount",
          "type": "uint256"
        }
      ],
      "name": "mint",
      "outputs": [],
      "stateMutability": "nonpayable",
      "type": "function"
    },
    {
      "inputs": [
        {
          "internalType": "address",
          "name": "",
          "type": "address"
        }
      ],
      "name": "minters",
      "outputs": [
        {
          "internalType": "bool",
          "name": "",
          "type": "bool"
        }
      ],
      "stateMutability": "view",
      "type": "function"
    },
    {
      "inputs": [],
      "name": "name",
      "outputs": [
        {
          "internalType": "string",
          "name": "",
          "type": "string"
        }
      ],
      "stateMutability": "view",
      "type": "function"
    },
    {
      "inputs": [],
      "name": "owner",
      "outputs": [
        {
          "internalType": "address",
          "name": "",
          "type": "address"
        }
      ],
      "stateMutability": "view",
      "type": "function"
    },
    {
      "inputs": [],
      "name": "renounceOwnership",
      "outputs": [],
      "stateMutability": "nonpayable",
      "type": "function"
    },
    {
      "inputs": [
        {
          "internalType": "address",
          "name": "account",
          "type": "address"
        },
        {
          "internalType": "bool",
          "name": "enabled",
          "type": "bool"
        }
      ],
      "name": "setMinter",
      "outputs": [],
      "stateMutability": "nonpayable",
      "type": "function"
    },
    {
      "inputs": [],
      "name": "symbol",
      "outputs": [
        {
          "internalType": "string",
          "name": "",
          "type": "string"
        }
      ],
      "stateMutability": "view",
      "type": "function"
    },
    {
      "inputs": [
        {
          "internalType": "address",
          "name": "to",
          "type": "address"
        },
        {
          "internalType": "uint256",
          "name": "value",
          "type": "uint256"
        }
      ],
      "name": "transfer",
      "outputs": [
        {
          "internalType": "bool",
          "name": "",
          "type": "bool"
        }
      ],
      "stateMutability": "nonpayable",
      "type": "function"
    },
    {
      "inputs": [
        {
          "internalType": "address",
          "name": "to",
          "type": "address"
        },
        {
          "internalType": "uint256",
          "name": "value",
          "type": "uint256"
        },
        {
          "internalType": "bytes",
          "name": "data",
          "type": "bytes"
        }
      ],
      "name": "transfer",
      "outputs": [
        {
          "internalType": "bool",
          "name": "",
          "type": "bool"
        }
      ],
      "stateMutability": "nonpayable",
      "type": "function"
    },
    {
      "inputs": [
        {
          "internalType": "address",
          "name": "from",
          "type": "address"
        },
        {
          "internalType": "address",
          "name": "to",
          "type": "address"
        },
        {
          "internalType": "uint256",
          "name": "value",
          "type": "uint256"
        }
      ],
      "name": "transferFrom",
      "outputs": [
        {
          "internalType": "bool",
          "name": "",
          "type": "bool"
        }
      ],
      "stateMutability": "nonpayable",
      "type": "function"
    },
    {
      "inputs": [
        {
          "internalType": "address",
          "name": "newOwner",
          "type": "address"
        }
      ],
      "name": "transferOwnership",
      "outputs": [],
      "stateMutability": "nonpayable",
      "type": "function"
    }
  ],
  "bytecode": "0x608060405234801561001057600080fd5b50604051610bc0380380610bc083398101604081905261002f916100df565b806001600160a01b03811661005e57604051631e4fbdf760e01b81526000600482015260240160405180910390fd5b6100678161008f565b506001600160a01b03166000908152600360205260409020805460ff1916600117905561010f565b600080546001600160a01b038381166001600160a01b0319831681178455604051919092169283917f8be0079c531659141344cd1fd0a4f28419497f9722a3daafe3b4186f6b6457e09190a35050565b6000602082840312156100f157600080fd5b81516001600160a01b038116811461010857600080fd5b9392505050565b610aa28061011e6000396000f3fe608060405234801561001057600080fd5b50600436106100f55760003560e01c80638da5cb5b11610097578063cf456ae711610066578063cf456ae71461020e578063dd62ed3e14610221578063f2fde38b1461024c578063f46eccc41461025f57600080fd5b80638da5cb5b146101cd57806395d89b41146100fa578063a9059cbb146101e8578063be45fd62146101fb57600080fd5b8063313ce567116100d3578063313ce5671461016857806340c10f191461018257806370a0823114610197578063715018a6146101c557600080fd5b806306fdde03146100fa578063095ea7b31461013257806323b872dd14610155575b600080fd5b61011c6040518060400160405280600381526020016220ab2360e91b81525081565b6040516101299190610832565b60405180910390f35b610145610140366004610868565b610282565b6040519015158152602001610129565b610145610163366004610892565b6102ef565b610170601281565b60405160ff9091168152602001610129565b610195610190366004610868565b6103b0565b005b6101b76101a53660046108ce565b60016020526000908152604090205481565b604051908152602001610129565b6101956104a4565b6000546040516001600160a01b039091168152602001610129565b6101456101f6366004610868565b6104b8565b6101456102093660046108e9565b6104cf565b61019561021c366004610970565b610513565b6101b761022f3660046109ac565b600260209081526000928352604080842090915290825290205481565b61019561025a3660046108ce565b61057a565b61014561026d3660046108ce565b60036020526000908152604090205460ff1681565b3360008181526002602090815260408083206001600160a01b038716808552925280832085905551919290917f8c5be1e5ebec7d5bd14f71427d1e84f3dd0314c0f7b2291e5b200ac8c7c3b925906102dd9086815260200190565b60405180910390a35060015b92915050565b6001600160a01b0383166000908152600260209081526040808320338452909152812054600019811461036c578281101561033d576040516313be252b60e01b815260040160405180910390fd5b61034783826109f5565b6001600160a01b03861660009081526002602090815260408083203384529091529020555b6103a585858560005b6040519080825280601f01601f19166020018201604052801561039f576020820181803683370190505b506105bd565b506001949350505050565b3360009081526003602052604090205460ff161580156103db57506000546001600160a01b03163314155b156103f95760405163955c501b60e01b815260040160405180910390fd5b6001600160a01b0382166104205760405163d92e233d60e01b815260040160405180910390fd5b6001600160a01b03821660009081526001602052604081208054839290610448908490610a08565b909155505060408051600080825260208201928390526001600160a01b0385169290917fe19260aff97b920c7df27010903aeb9c8d2be5d310a2c67824cf3f15396e4c1691610498918691610a1b565b60405180910390a35050565b6104ac61076f565b6104b6600061079c565b565b60006104c633848484610375565b50600192915050565b60006103a533868686868080601f0160208091040260200160405190810160405280939291908181526020018383808284376000920191909152506105bd92505050565b61051b61076f565b6001600160a01b038216600081815260036020908152604091829020805460ff191685151590811790915591519182527fb21afb9ce9be0a676f8f317ff0ca072fb89a4f8ce2d1b6fe80f8755c14f1cb19910160405180910390a25050565b61058261076f565b6001600160a01b0381166105b157604051631e4fbdf760e01b8152600060048201526024015b60405180910390fd5b6105ba8161079c565b50565b6001600160a01b0383166105e45760405163d92e233d60e01b815260040160405180910390fd5b6001600160a01b03841660009081526001602052604090205482111561061d57604051631e9acf1760e31b815260040160405180910390fd5b6001600160a01b038416600090815260016020526040812080548492906106459084906109f5565b90915550506001600160a01b0383163b156106ee576001600160a01b03831660009081526001602052604081208054849290610682908490610a08565b909155505060405163607705c560e11b81526001600160a01b0384169063c0ee0b8a906106b790879086908690600401610a3c565b600060405180830381600087803b1580156106d157600080fd5b505af11580156106e5573d6000803e3d6000fd5b5050505061071c565b6001600160a01b03831660009081526001602052604081208054849290610716908490610a08565b90915550505b826001600160a01b0316846001600160a01b03167fe19260aff97b920c7df27010903aeb9c8d2be5d310a2c67824cf3f15396e4c168484604051610761929190610a1b565b60405180910390a350505050565b6000546001600160a01b031633146104b65760405163118cdaa760e01b81523360048201526024016105a8565b600080546001600160a01b038381166001600160a01b0319831681178455604051919092169283917f8be0079c531659141344cd1fd0a4f28419497f9722a3daafe3b4186f6b6457e09190a35050565b6000815180845260005b81811015610812576020818501810151868301820152016107f6565b506000602082860101526020601f19601f83011685010191505092915050565b60208152600061084560208301846107ec565b9392505050565b80356001600160a01b038116811461086357600080fd5b919050565b6000806040838503121561087b57600080fd5b6108848361084c565b946020939093013593505050565b6000806000606084860312156108a757600080fd5b6108b08461084c565b92506108be6020850161084c565b9150604084013590509250925092565b6000602082840312156108e057600080fd5b6108458261084c565b600080600080606085870312156108ff57600080fd5b6109088561084c565b935060208501359250604085013567ffffffffffffffff8082111561092c57600080fd5b818701915087601f83011261094057600080fd5b81358181111561094f57600080fd5b88602082850101111561096157600080fd5b95989497505060200194505050565b6000806040838503121561098357600080fd5b61098c8361084c565b9150602083013580151581146109a157600080fd5b809150509250929050565b600080604083850312156109bf57600080fd5b6109c88361084c565b91506109d66020840161084c565b90509250929050565b634e487b7160e01b600052601160045260246000fd5b818103818111156102e9576102e96109df565b808201808211156102e9576102e96109df565b828152604060208201526000610a3460408301846107ec565b949350505050565b60018060a01b0384168152826020820152606060408201526000610a6360608301846107ec565b9594505050505056fea2646970667358221220e0113d8126d037efe3dfce47efc15a0e6d66fa29b638b1a88d5a9106de55ef1a64736f6c63430008180033",
  "linkReferences": {},
  "deployedLinkReferences": {}
}